{
  "address": "0x10c05EBF03F8c02b78A611222823C842A0895efB",
  "abi": [
    {
      "inputs": [
        {
          "internalType": "address",
          "name": "_cornDEX",
          "type": "address"
        },
        {
          "internalType": "address",
          "name": "_corn",
          "type": "address"
        },
        {
          "internalType": "address",
          "name": "_lending",
          "type": "address"
        }
      ],
      "stateMutability": "nonpayable",
      "type": "constructor"
    },
    {
      "inputs": [
        {
          "internalType": "uint256",
          "name": "_amount",
          "type": "uint256"
        },
        {
          "internalType": "address",
          "name": "_initiator",
          "type": "address"
        },
        {
          "internalType": "address",
          "name": "_extraParam",
          "type": "address"
        }
      ],
      "name": "executeOperation",
      "outputs": [
        {
          "internalType": "bool",
          "name": "",
          "type": "bool"
        }
      ],
      "stateMutability": "nonpayable",
      "type": "function"
    },
    {
      "inputs": [
        {
          "internalType": "address",
          "name": "user",
          "type": "address"
        }
      ],
      "name": "liquidate",
      "outputs": [],
      "stateMutability": "nonpayable",
      "type": "function"
    },
    {
      "stateMutability": "payable",
      "type": "receive"
    }
  ],
  "transactionHash": "0xbf774bb1d560bd9c898f9779c02a3128f9f58f6a61003c548bb3491ae3c99e26",
  "args": [
    "0x13b72aC574b1d046e215666C608f00484Af682f2",
    "0xbAB68f06A109d7CC049c8783d3467a45cc03Fe96",
    "0x6A13AfDf00b4e5d0028c5Cd418a81418841Abd78"
  ],
  "numDeployments": 2,
  "solcInputHash": "7fbd28f90d71ac1a3668d71e23fef43e",
  "bytecode": "0x608060405234801561001057600080fd5b5060405161060238038061060283398101604081905261002f91610175565b600180546001600160a01b038581166001600160a01b031992831617909255600080548584169083168117909155600280549385169390921692909217905560405163095ea7b360e01b8152306004820152600019602482015263095ea7b3906044016020604051808303816000875af11580156100b1573d6000803e3d6000fd5b505050506040513d601f19601f820116820180604052508101906100d591906101b8565b5060005460025460405163095ea7b360e01b81526001600160a01b039182166004820152600019602482015291169063095ea7b3906044016020604051808303816000875af115801561012c573d6000803e3d6000fd5b505050506040513d601f19601f8201168201806040525081019061015091906101b8565b505050506101e1565b80516001600160a01b038116811461017057600080fd5b919050565b60008060006060848603121561018a57600080fd5b61019384610159565b92506101a160208501610159565b91506101af60408501610159565b90509250925092565b6000602082840312156101ca57600080fd5b815180151581146101da57600080fd5b9392505050565b610412806101f06000396000f3fe60806040526004361061002d5760003560e01c80632f86556814610039578063a85c7aa61461005b57600080fd5b3661003457005b600080fd5b34801561004557600080fd5b50610059610054366004610365565b61008f565b005b34801561006757600080fd5b5061007b610076366004610387565b61016f565b604051901515815260200160405180910390f35b600254604051632a5f2c2360e01b81526001600160a01b0383811660048301526000921690632a5f2c2390602401602060405180830381865afa1580156100da573d6000803e3d6000fd5b505050506040513d601f19601f820116820180604052508101906100fe91906103c3565b60025460405162b096d560e21b8152306004820152602481018390526001600160a01b0385811660448301529293509116906302c25b5490606401600060405180830381600087803b15801561015357600080fd5b505af1158015610167573d6000803e3d6000fd5b505050505050565b6002546040516305f0caad60e31b81526001600160a01b0383811660048301526000921690632f86556890602401600060405180830381600087803b1580156101b757600080fd5b505af11580156101cb573d6000803e3d6000fd5b5050600154600080546040516370a0823160e01b81526001600160a01b039384166004820181905231955091935091909116906370a0823190602401602060405180830381865afa158015610224573d6000803e3d6000fd5b505050506040513d601f19601f8201168201806040525081019061024891906103c3565b600154604051636e97f13960e01b81526004810189905260248101859052604481018390529192506000916001600160a01b0390911690636e97f13990606401602060405180830381865afa1580156102a5573d6000803e3d6000fd5b505050506040513d601f19601f820116820180604052508101906102c991906103c3565b600154604051634a5c8c6f60e11b8152600481018390529192506001600160a01b0316906394b918de90839060240160206040518083038185885af1158015610316573d6000803e3d6000fd5b50505050506040513d601f19601f8201168201806040525081019061033b91906103c3565b506001979650505050505050565b80356001600160a01b038116811461036057600080fd5b919050565b60006020828403121561037757600080fd5b61038082610349565b9392505050565b60008060006060848603121561039c57600080fd5b833592506103ac60208501610349565b91506103ba60408501610349565b90509250925092565b6000602082840312156103d557600080fd5b505191905056fea264697066735822122093bcc5c99a9354384bf1f4a29f40d1352dfa731cacca6cf49d89a0e4ddcba09764736f6c63430008140033",
  "devdoc": {
    "kind": "dev",
    "methods": {},
    "version": 1
  },
  "userdoc": {
    "kind": "user",
    "methods": {},
    "version": 1
  },
  "storageLayout": {
    "storage": [
      {
        "astId": 1698,
        "contract": "contracts/FlashLoanLiquidator.sol:FlashLoanLiquidator",
        "label": "i_corn",
        "offset": 0,
        "slot": "0",
        "type": "t_contract(Corn)1041"
      },
      {
        "astId": 1701,
        "contract": "contracts/FlashLoanLiquidator.sol:FlashLoanLiquidator",
        "label": "i_cornDEX",
        "offset": 0,
        "slot": "1",
        "type": "t_contract(CornDEX)1693"
      },
      {
        "astId": 1704,
        "contract": "contracts/FlashLoanLiquidator.sol:FlashLoanLiquidator",
        "label": "i_lending",
        "offset": 0,
        "slot": "2",
        "type": "t_contract(Lending)2618"
      }
    ],
    "types": {
      "t_contract(Corn)1041": {
        "encoding": "inplace",
        "label": "contract Corn",
        "numberOfBytes": "20"
      },
      "t_contract(CornDEX)1693": {
        "encoding": "inplace",
        "label": "contract CornDEX",
        "numberOfBytes": "20"
      },
      "t_contract(Lending)2618": {
        "encoding": "inplace",
        "label": "contract Lending",
        "numberOfBytes": "20"
      }
    }
  }
}